:020000040800F2
:100000008807002061010008B1120008AF12000843
:1000100000000000000000000000000000000000E0
:10002000000000000000000000000000B512000801
:100030000000000000000000B3120008B712000822
:1000400073010008730100087301000873010008C0
:1000500073010008730100087301000873010008B0
:1000600073010008730100087301000873010008A0
:100070007301000873010008730100087301000890
:1000800073010008730100080000000073010008FC
:100090007301000873010008730100087301000870
:1000A00073010008730100087301000809160008B5
:1000B00015160008000000007301000800F002F8A7
:1000C00000F03EF80CA030C8083824182D18671E20
:1000D000A246AB4654465D46AC4201D100F030F832
:1000E0007E460F3EB6460FCC0126334200D0FB1AA7
:1000F0003343A246AB4618475C1800007C1800004A
:10010000103A02D378C878C1FAD8520701D330C860
:1001100030C101D504680C60704700000023002442
:1001200000250026103A01D378C1FBD8520700D32E
:1001300030C100D50B6070471FB51FBD10B510BD95
:1001400000F04DF81146FFF7F7FF01F069FA00F0F3
:1001500065F803B4FFF7F2FF03BC00F06BF8000092
:100160000748804707480047FEE7FEE7FEE7FEE74F
:10017000FEE7FEE704480549054A064B70470000C4
:10018000BF120008BD000008880100208807002079
:10019000880300208803002001E004C0091F04290F
:1001A000FBD28B0701D50280801CC90700D00270EA
:1001B000704700290BD0C30702D00270401C491EB3
:1001C000022904D3830702D50280801C891EE3E73D
:1001D0000022EEE70022DFE7704770477047754660
:1001E00000F024F8AE46050069465346C008C0003A
:1001F000854618B020B5FFF7BDFF60BCB6460026A7
:100200000027C0C5C0C5C0C5C0C5C0C5C0C5C0C524
:10021000C0C5403D490849008D46704710B50446A9
:10022000C046C0462046FFF794FF10BD0048704707
:100230001000002001491820ABBEFEE72600020096
:10024000704710B5014620314A78022A12D102685F
:1002500013680E24A343136013680124A34313609F
:10026000C26B006C2346834053604C700020002218
:100270000A7010BD04228263012000220A7010BDA2
:10028000B0B5014620314A78022A16D102681368B7
:100290000E24A343136013680125AB431360C26BA4
:1002A000036C2C469C40546000240C704D70416BD4
:1002B000002900D088472046B0BD04218163012079
:1002C000B0BD0000F0B58AB003900F68002F00D1D8
:1002D000C3E06348039A824201D0052000E0032076
:1002E000009000231A461C4608910BE03A43F26046
:1002F000079A641C0F683846E0409B1C121D0028BA
:1003000000D1AAE001260596A6403740F1D0079219
:10031000032002469A400293D34349680D460540A4
:100320006A1E012A0693049113D80197039FB868A7
:100330001840089AD268029B9A400243BA60C806E5
:10034000C00FA0407A68B2433E46019F02437260EC
:1003500006E0032D039E029B02D10546079A1EE08C
:10036000F0680699084008998A689A400243F2604A
:10037000022D079A13D11C2010400F218140E20862
:100380009200B218156A8D43089E31698140294355
:100390001162079A7068039E0325049005409D40F2
:1003A0003068069908402843306004988003800F25
:1003B00008999ED057490868059D28430860086839
:1003C000284009900C2010400F228240032125462E
:1003D0008D430999244EA9599143AD190922D2069A
:1003E000039E96420CD0214A964206D0204A96425D
:1003F000009A1C4E06D1022204E01A4E059A01E032
:100400000022184E82400A432A6035680898014647
:100410004068C2030FD53D433560756882030FD431
:10042000BD437560B568C2020FD4BD43B560F268C4
:10043000800210D55AE7BD43356075688203EFD559
:100440003D437560B568C202EFD53D43B560F268C3
:10045000800200D54AE7BA4349E70AB0F0BDC0467A
:10046000000C00480004014008000140000400485E
:1004700000080048054800687047C0461A480078E0
:1004800002490A68101808607047C04684010020BD
:1004900080B5CA48016810220A430260032000F0B8
:1004A00005F800F023F8002080BDC04670B5044672
:1004B0007D20C0000C4E317801F034F90146C74868
:1004C000006801F02FF900F0ADFB0125032C08D8DE
:1004D000002806D10025E84321462A4600F028F8E6
:1004E0007460284670BDC0460000002082B00948F4
:1004F00001680122114301600168114001910199D5
:10050000110742680A434260406808400090009822
:1005100002B0704718100240002805D41F2108407F
:1005200001218140014801607047C04600E100E0C0
:10053000002805D40322034693430A4A9A1803E08D
:100540000C220240064BD2188007C00E8901C9B2A6
:100550008140FF2383401068984308431060704730
:1005600014ED00E000E400E0F0B585B004468078CA
:10057000C007414B4FD00120039001071A1F10689C
:100580000840029006D110680843106010680840C7
:100590000490049800920191384E3068C00513D43D
:1005A00003980702306838433060FFF763FF054661
:1005B0003068384208D1FFF75DFF401B6428F7D947
:1005C0000325284605B0F0BD032528022A4B1968EB
:1005D000014012D06268024091420ED0039800049C
:1005E00019681A6802431A601A6882431A6008463A
:1005F000234A10401860C80730D1186820490840C5
:100600006168014319600298002804D1009A1068BB
:100610000199884310602068C10705D181060BD479
:1006200000254005CDD510E0196903229143A26849
:100630000A431A618106F3D5196910229143E268D1
:100640000A431A6100254005BBD51869402188433B
:10065000216901431961284605B0F0BDFFF70AFF83
:100660000646574F044B18688007C6D4FFF702FFB1
:10067000801BB842F6D9A4E7201002400070004069
:10068000FFFCFFFFF0B581B000284FD004464B4A75
:100690001368012003408B4208D213680126B3433C
:1006A0000B431360126832408A4240D100912168A6
:1006B0008A075A4B11D54A0707D507221202574B12
:1006C0001B681343554A1360544B1A68F0239A432E
:1006D000A3681343514A1360504BC9072AD13749C5
:1006E000086801263040009A904205D90868B04356
:1006F00008600868C0071AD12078400706D507208F
:10070000000219688143E0680843186019680C22E8
:100710000A404348082A18D18A02120F414B9C5CB8
:100720003E4B9A6AC90332D4404837E0012630462E
:1007300001B0F0BD61681A1F022908D001290BD150
:10074000126892030646F2D50AE0044627E01268D2
:1007500092010646EBD503E0126892070646E6D5FD
:1007600018680326B04308431860FFF783FE074666
:10077000134D2A4B18680C210140606880008142AB
:10078000ADD0FFF777FEC01BA842F2D9CFE70F210B
:100790000A402549895C00F0C5FF204B4443186896
:1007A0000006000F0749085CC4400C4804600320A1
:1007B000FFF77CFE0026304601B0F0BD002002406D
:1007C000881300001A1900080448006813490968D2
:1007D0004905490F024A515CC84070470800002093
:1007E0002A19000810B50D490A680C2313400C485B
:1007F000082B09D193021B0F0A4CE45C896AD203CF
:1008000003D40A484443204610BD0F221140064A33
:10081000515C00F087FF4443204610BD04100240A5
:1008200000127A00321900084219000800093D0040
:10083000F0B587B004460120002C00D1EAE1049015
:100840002078C007F44E059426D071680C20014032
:1008500004291AD071680140082902D17068C003C8
:1008600013D4616801204704002900D184E10529DF
:1008700000D198E1012900D199E1010432688A434D
:10088000326081043068884394E13068800303D586
:100890006068002800D1BDE0207880071AD5706814
:1008A0000007800F07D070680C210140082975D11E
:1008B0007068C00372D430688007059C03D5E06877
:1008C000012800D0A6E03068F82188432169C900DA
:1008D00001433160059C2078000724D4207840072C
:1008E00036D42078C00600D4B4E005984069411D94
:1008F00000D1A3E0012800D0F4E0706B0421014393
:100900007163706B012101437163FFF7B3FD05460D
:10091000706B800700D595E0FFF7ACFD411B03200D
:100920000229F5D976E1706AE169002960D00121D8
:1009300008437062FFF79EFD0546706A8007CDD4BC
:10094000FFF798FD401B0228F7D9032007B0F0BD40
:10095000012003900107F0690840029006D1F06978
:100960000843F061F0690840069006980191AB4F8A
:100970003868C00528D403980402386820433860DA
:10098000FFF778FD0546386820421DD1FFF772FD5C
:10099000401B6428F7D9032007B0F0BD3068059CE0
:1009A000E168002939D0012108433060FFF762FD7A
:1009B00005463068800786D4FFF75CFD401B02289F
:1009C000F7D9032007B0F0BD05988068944F002840
:1009D00000D19CE0052800D1AEE0012800D1AFE0B5
:1009E000306A039988433062306A04218843AAE060
:1009F000012188437062FFF73DFD0546706A80075C
:100A000000D46BE7FFF736FD401B0228F6D9032020
:100A100007B0F0BD049807B0F0BD012188433060F5
:100A2000FFF728FD05463068800700D452E7FFF73E
:100A300021FD411B03200229F5D9EBE0706B042155
:100A400088437063706BF821884305998969C900F0
:100A5000014371630598046A002C1ED070680C2154
:100A6000014008291CD1012C049800D1D2E00120BA
:100A7000030471680B40F26A059D6C6AA34200D0C2
:100A8000C8E00F231A40EC6AA24200D0C2E09A04E8
:100A90001140AA6A914200D0BCE0002007B0F0BD2E
:100AA0000120020631680492914331604706FFF746
:100AB000E1FC0546022C0BD1049C3068384200D181
:100AC00088E0FFF7D7FC411B03200229F5D9A1E0FC
:100AD00030683842E1D0FFF7CDFC411B03200229EA
:100AE000F6D997E0706B042101437163706B0121AB
:100AF00088437063FFF7BEFC0546706B8007A9D57D
:100B0000FFF7B8FC411B03200229F6D982E0306AC6
:100B1000039988433062306A042188433062FFF7CA
:100B2000A9FC0546306A80071CD5FFF7A3FC411BD2
:100B30000320B942F6D96DE0306A042101433162E5
:100B4000306A039908433062FFF794FC0546306A27
:100B5000800707D4FFF78EFC401BB842F7D903206B
:100B600007B0F0BD02980028059C00D0B9E6F069F6
:100B700001998843F061B4E6010432688A43326027
:100B80008004316881433160FFF774FC0546059CA1
:100B90003068384200D17FE6FFF76CFC411B032030
:100BA0006429F5D936E0810432680A4332600104D1
:100BB000306808433060FFF75DFC05463068384216
:100BC00000D069E6FFF756FC401B6428F6D90320E5
:100BD00007B0F0BDF06A0F218843059AD16A01433E
:100BE000F1623D20000471688143906A0843516AB4
:100BF00001437160306820433060FFF73BFC0446DE
:100C00003068384200D048E7FFF734FC011B03206E
:100C10000229F5D907B0F0BD001002400070004075
:100C200088130000401E010E01D0012070470749C3
:100C3000074A5060074803680B4003218907591889
:100C4000016000209060072111607047FFFFFF00E6
:100C500010E000E020ED00E07047704770470000B2
:100C6000F0B589B00368DE691A6820210892059101
:100C70000A40514251410127FD022C462F3407966C
:100C80003440203C661EB4410C439E6860D002A9EB
:100C90008CC106900246583201950F35079F2F42AE
:100CA000089807D0E3490140012334461C406118ED
:100CB00000D097E01023014619404C424C413D467C
:100CC000394619404F424F410698016E0129049858
:100CD000014643D139460029014642D0002943D07C
:100CE0002F46012399050E4074427441E9020146E2
:100CF000039A00D521460029069800D1F0E0802112
:100D0000089A11404C424C413906049900D52146BD
:100D1000002900D182E14025089929404C424C41EC
:100D2000790600D50494049900290FD1EFF31081BE
:100D300083F3108802681368AB43136081F3108853
:100D4000002181660599816700F0B0FA09B0F0BD15
:100D5000416E0029FAD0884709B0F0BD002901464C
:100D6000BCD121460029BBD10398036280684006AC
:100D700000D5BBE0548810885288002A0699E5D037
:100D8000A042E3D00894EFF31084012282F310888C
:100D900009256D010E683768AF43376084F310880A
:100DA000EFF3108482F310880D68AE689643AE604E
:100DB00084F31088059CCC6700244C660C66EFF326
:100DC000108482F310880A6815689D43156084F3C7
:100DD0001088089A801A82B208461146FFF73CFF35
:100DE00009B0F0BD190201404E424E41F907049886
:100DF000014600D031460029039D03D12B62916A40
:100E00001943916266426641B907014600D53146F1
:100E1000002905D102212962916A04260E439662B7
:100E2000664266417907014600D53146002905D161
:100E300004212962916A02260E43966202990C43AC
:100E4000664266413907044600D53446002C04D179
:100E500008212962946A0C4394629906089E0E4008
:100E60007442744101990F42069E0CD020463C46C4
:100E700000280BD12962916A059801439162916A19
:100E8000002907D162E73C460028F3D0916A002987
:100E900000D15BE71746059821460140029844427D
:100EA00044410029049800D0204600283C4608D13F
:100EB000716E002905D030461C46884723463C46C3
:100EC0003568A16A28220A40A96840200140891893
:100ED0005CD13046FFF7C2FE0020A06209B0F0BD31
:100EE00019051162FFF7B9FE09B0F0BD1746069E5D
:100EF000316F0868426894B2002C00D126E7388828
:100F0000844200D322E73C467A803A468969202908
:100F100034D0EFF31081012080F31088474A20324B
:100F2000346825681540256081F31088EFF310813F
:100F300080F31088326894688443946081F3108849
:100F4000EFF3108180F31088326894684025AC4339
:100F5000946081F310880599F16700213166EFF301
:100F6000108180F31088306802689A43026081F330
:100F70001088306FFFF765F93A4638885188401A73
:100F800081B23046FFF768FE09B0F0BDEFF3108183
:100F900083F31088092252011F4633681C6894436A
:100FA0001C6081F31088EFF3108187F3108832689A
:100FB00093683D46BB43936081F31088316E0129ED
:100FC0000AD1EFF3108185F310883268136810247A
:100FD000A343136081F310880599F16700213166FE
:100FE00071663168896849061FD5EFF3108185F372
:100FF0001088326893688343936081F31088306F60
:10100000002812D00C494163FFF73AF9002800D1BB
:101010009CE6306F416B884709B0F0BD816E0029B6
:1010200000D193E6884709B0F0BD3046FFF716FEC1
:1010300009B0F0BD2001000493130008DFFEFFFF9C
:10104000F0B583B0002841D0044607467437806F5E
:10105000002804D100203870204600F057F82420E2
:10106000A067206801680125A9430160204600F0BF
:101070009BF9012827D0606A002802D0204600F0A2
:101080001FF90920C00221684A6882434A608868C3
:101090002A229043886008680126304308600025B2
:1010A000FD60FFF7E7F9034620680168090713D5DB
:1010B00015480090710500222046029300F008FABE
:1010C000002807D00325284603B0F0BD0125284697
:1010D00003B0F0BD2068029B006840070CD50A48A9
:1010E0000090B1050022204600F0F2F9002803D05C
:1010F0000325284603B0F0BD2020A067E0673D70BF
:101100002566284603B0F0BDFFFFFF01B0B586B0ED
:101110000024059404940394029401940068E34924
:10112000884218D0E24988423DD1012081031F4AFC
:1011300053680B43536053680B400093009940047D
:10114000116801431160116801400091009803206B
:1011500040021B2512E00120400414498A68024322
:101160008A608A6802400092009A0A6802430A6014
:1011700009680140009100981C250C20012105916F
:101180000321049103940221029101900920C006D9
:1011900001A9FFF797F8284621462246FFF7C8F92C
:1011A0002846FFF7B9F906B0B0BDC046141002409A
:1011B000F0B587B006930E460446C06F0221202882
:1011C00012D10120002E63D01746002A60D00122E0
:1011D0001303A06898420AD1F00708D020690028BC
:1011E00005D1104607B0F0BD084607B0F0BD254652
:1011F0005835287F012808464AD004930021A96267
:101200002220E0672A7702912166FFF733F90590E3
:101210006F802F80A068002808D0049988420AD1E6
:1012200020690028029938D0FF200AE020690028B0
:1012300005D07F2004E00299A980049103E0FF20FB
:1012400002990490A8800391297707E00399088008
:10125000891C03913E466888401E68806888002883
:1012600013D0069800902021002720463A46059B7F
:1012700000F02EF900280DD12068808C04990840D8
:10128000002EE3D03070761CE5E72020E0670020D8
:1012900007B0F0BD032007B0F0BD03480490A8805C
:1012A000002003960646CFE7FF0100007047FEE7E7
:1012B000FEE77047704780B5FFF7E0F880BD7047E4
:1012C000B0B5416ACA070CD18A0714D44A071CD4A6
:1012D0000A0724D4CA062CD48A0634D44A063CD43D
:1012E0004CE00122520403685C689443826A224302
:1012F0005A608A07EAD50122120403685C689443A5
:10130000C26A22435A604A07E2D501229204036866
:101310005C689443026B22435A600A07DAD50122C3
:10132000D20303685C689443426B22435A60CA0646
:10133000D2D50122120303689C689443826B224336
:101340009A608A06CAD50122520303689C689443B6
:10135000C26B22439A604A0610D501221305026827
:1013600054689C43056C2C4354609D4206D1032372
:101370005B0554689C43436C23435360090607D5BF
:101380000121C904026853688B43806C1843506084
:10139000B0BD80B5406A0146523100220A81522117
:1013A0004252FFF75BFC80BDB0B50446006801689F
:1013B0003D4A0A40A16823690B4365691D431543F3
:1013C000E1690D4305600322120343689343E26819
:1013D0001A434260A269236A13430B2212028568F2
:1013E00095431D438560314A904209D0304A90426E
:1013F00008D1304800688007000F2FA2135802E080
:10140000002300E010230125EA032F4891420FD169
:10141000082B43D87B441B795B009F44043F203F4B
:10142000193F3F3F1F00FFF7CFF9002817D113E006
:10143000082B33D87B441B795B009F44042F242F57
:101440001D2F2F2F2300FFF7BFF900281BD117E016
:10145000FFF7C8F9002802D100251FE01046400020
:1014600061684A08101800F05DF91849014015D06C
:101470000007400F08430EE0FFF7B4F9002802D13F
:1014800000250BE0104661684A08101800F04AF980
:1014900080B2102802D32168C86000250020606651
:1014A000A0662846B0BDC046F369FFFF0044004077
:1014B000003801403010024000000000040000002D
:1014C000080000000200000000127A00F0FF000097
:1014D000F0B587B016460F4605460468E169394005
:1014E000C91B4A424A410020B24224D106930495C6
:1014F0002A4674320C9D002D1FD0691C43D1E1692E
:101500003940C91B4A424A41B24214D1E1693940CB
:10151000C91B4A424A41B2420DD1E1693940C91B57
:101520004A424A41B24206D1E1693940C91B4A42A6
:101530004A41B242E3D007B0F0BD0392FEF79AFFF2
:10154000049CEFF31081012080F310880D225201DA
:1015500023681D6895431D6081F31088EFF31081A7
:1015600080F31088226893688343936081F3108826
:101570002020A0677C340399002008702020206080
:10158000032007B0F0BD0392029001200190C00239
:101590000590049C06E0C0693840C01B41424141AF
:1015A000B1422DD1FEF766FF0699401AA842C8D86D
:1015B000206801684907EED5C169059A1142EAD051
:1015C00005990162EFF31080019D85F310880D21CC
:1015D0004901226813688B43136080F31088EFF38E
:1015E000108085F3108821688A68AA438A6080F396
:1015F00010882020A067E06703990C460C34BBE7F5
:10160000029807B0F0BD000080B54148FFF728FB05
:1016100080BDC04680B54048FFF722FB80BDC04674
:1016200096B0FEF735FF0AAD281D2C21FEF7D2FD3E
:101630000024129410200E9001260D9602200A908C
:1016400005940494039402942846FFF7F1F80028C7
:1016500003D0EFF3108072B6FEE709940894079464
:101660000720069006A82146FFF70CF8002803D0B3
:10167000EFF3108072B6FEE70394019601A8FEF71F
:1016800073FF002803D0EFF3108072B6FEE77104F9
:101690001E4A1068084310601D480C25456104610E
:1016A000C46084601B4B03604B235E02466012687B
:1016B0008461C461046244620A400A920A99FFF795
:1016C000BFFC002803D0EFF3108072B6FEE712488B
:1016D000124942C0046044608460C5600461446192
:1016E0008461C4610838FFF7ABFC002803D0EFF336
:1016F000108072B6FEE7084C094D7D20C3000A2217
:1017000020462946FFF754FDF7E7C0461410024073
:101710007C0000200038014000010020004400400F
:101720007000002043088B421AD3002203098B4229
:1017300079D3030A8B425ED3030B8B4242D3030C53
:101740008B4227D30902FF2212BA030C8B4202D329
:101750001212090203D0030B8B4233D31AE0D3E0F9
:10176000411A8041401C704703460B4371D4430823
:101770008B42F5D3002203098B4254D3030A8B42D8
:1017800039D3030B8B421DD3030C8B4202D39446F7
:101790006EE0090AC30B8B4201D3CB03C01A52413E
:1017A000830B8B4201D38B03C01A5241430B8B42F4
:1017B00001D34B03C01A5241030B8B4201D30B03DD
:1017C000C01A5241C30A8B4201D3CB02C01A524104
:1017D000830A8B4201D38B02C01A5241430A8B42C7
:1017E00001D34B02C01A5241030A8B4201D30B02B0
:1017F000C01A5241CDD2C3098B4201D3CB01C01ACA
:10180000524183098B4201D38B01C01A52414309D3
:101810008B4201D34B01C01A524103098B4201D3C1
:101820000B01C01A5241C3088B4201D3CB00C01A2E
:10183000524183088B4201D38B00C01A52414308A6
:101840008B4201D34B00C01A5241411A5241100041
:101850007047CA0F00D04942031000D340425340A2
:1018600000229C4603098B422DD3030A8B4212D3DC
:101870008901FC2212BA030A8B420CD3890192110E
:101880008B4208D3890192118B4204D3890137D04E
:10189000921100E08909C3098B4201D3CB01C01A20
:1018A000524183098B4201D38B01C01A5241430933
:1018B0008B4201D34B01C01A524103098B4201D321
:1018C0000B01C01A5241C3088B4201D3CB00C01A8E
:1018D000524183088B4201D38B00C01A5241D9D2A6
:1018E00043088B4201D34B00C01A5241411A00D227
:1018F00001465241104663465B1000D34042704798
:1019000063465B1000D3404201B50021004201D084
:10191000C9430846C046C04602BD000000000000A2
:10192000000001020304060708090000000001028C
:10193000030402030405060708090A0B0C0D0E0F29
:1019400010100102030405060708090A0B0C0D0E0E
:101950000F1000007819000800000020100000009F
:101960000001000888190008100000207807000016
:101970001C0100080000000001000000040000003D
:0819800000127A0000000000D3
:04000005080000BD32
:00000001FF
