:020000040800F2
:1000000068060020610100082103000803020008BF
:1000100000000000000000000000000000000000E0
:1000200000000000000000000000000025030008A0
:100030000000000000000000230300082703000860
:1000400073010008730100087301000873010008C0
:1000500073010008730100087301000873010008B0
:1000600073010008730100087301000873010008A0
:100070007301000873010008730100087301000890
:1000800073010008730100080000000073010008FC
:100090007301000873010008730100087301000870
:1000A0007301000873010008730100087301000860
:1000B00073010008000000007301000800F002F85E
:1000C00000F03EF80CA030C8083824182D18671E20
:1000D000A246AB4654465D46AC4201D100F030F832
:1000E0007E460F3EB6460FCC0126334200D0FB1AA7
:1000F0003343A246AB461847640500008405000060
:10010000103A02D378C878C1FAD8520701D330C860
:1001100030C101D504680C60704700000023002442
:1001200000250026103A01D378C1FBD8520700D32E
:1001300030C100D50B6070471FB51FBD10B510BD95
:1001400000F02DF81146FFF7F7FF00F0EFF800F090
:1001500045F803B4FFF7F2FF03BC00F04BF80000D2
:100160000748804707480047FEE7FEE7FEE7FEE74F
:10017000FEE7FEE704480549054A064B70470000C4
:1001800029030008BD000008680000206806002060
:10019000680200206802002070477047704775466B
:1001A00000F024F8AE46050069465346C008C0007A
:1001B000854618B020B5FFF7DDFF60BCB6460026C7
:1001C0000027C0C5C0C5C0C5C0C5C0C5C0C5C0C565
:1001D000C0C5403D490849008D46704710B50446EA
:1001E000C046C0462046FFF7B4FF10BD0048704728
:1001F0000800002001491820ABBEFEE726000200DF
:100200007047FEE7F0B582B00C68002C4ED000229B
:10021000009114E0764376430F2171438D43774379
:100220002F430199475000994D686B43056825405D
:100230001D4305600C68521C2346D34036D001256F
:1002400095402540F7D04E68731E022B01962B4631
:1002500012D26B438E685E4303275F438168B943C4
:10026000314381600099C96861434668A6430E43E3
:100270004660FC43009903E06B4303245C43E44382
:100280000F695F43C66826403E43C660019E022E4A
:10029000CAD12E0A01D0242500E020254F690195FE
:1002A0004559002EB6D11E465E43B5E7002002B088
:1002B000F0BD000080B57D21C90000F0D3F8401EDC
:1002C00016494860002088600520086080BDC0464F
:1002D000014908607047C0460000002081B00F4906
:1002E0000A680092401C01D30020C043009A0A68AB
:1002F000D203D21710180ED00A68D203D2171018E2
:1003000009D00A68D203D217101804D00A68D203A1
:10031000D2171018EBD101B07047C04610E000E0D2
:10032000FEE77047704770477047000088B0484E3E
:100330007069012528437061706928400190019817
:100340002807B1690143B161B16901400191019888
:10035000FF2000063F490A68824303208307D21822
:100360000A603D490A68AA430A600A68D20708D0B1
:100370000A68D20705D00A68D20702D00A68D207F5
:10038000F3D1311F0A682A430A600A68920708D429
:100390000A68920705D40A68920702D40A6892078D
:1003A000F3D50A6880231343782293430B603168A6
:1003B000F022914331600721090232688A4332609A
:1003C000C04331680140316030680007800F0BD0B6
:1003D00030680007800F07D030680007800F03D017
:1003E00030680007800FEFD11C4C2046FFF762FFFA
:1003F0002046FFF76DFF002006900295E904326960
:100400000A43326132690A400792079969043269E6
:100410000A43326132690A40079207996D02104E11
:10042000356005900490039001953046283801A965
:10043000FFF7E8FE7D20C4002046FFF74FFF356040
:100440002046FFF74BFF304610380560F4E7C04602
:100450000410024020ED00E00020024000127A006B
:100460002808004843088B421AD3002203098B4214
:1004700079D3030A8B425ED3030B8B4242D3030C26
:100480008B4227D30902FF2212BA030C8B4202D3FC
:100490001212090203D0030B8B4233D31AE0D3E0CC
:1004A000411A8041401C704703460B4371D44308F6
:1004B0008B42F5D3002203098B4254D3030A8B42AB
:1004C00039D3030B8B421DD3030C8B4202D39446CA
:1004D0006EE0090AC30B8B4201D3CB03C01A524111
:1004E000830B8B4201D38B03C01A5241430B8B42C7
:1004F00001D34B03C01A5241030B8B4201D30B03B0
:10050000C01A5241C30A8B4201D3CB02C01A5241D6
:10051000830A8B4201D38B02C01A5241430A8B4299
:1005200001D34B02C01A5241030A8B4201D30B0282
:10053000C01A5241CDD2C3098B4201D3CB01C01A9C
:10054000524183098B4201D38B01C01A52414309A6
:100550008B4201D34B01C01A524103098B4201D394
:100560000B01C01A5241C3088B4201D3CB00C01A01
:10057000524183088B4201D38B00C01A5241430879
:100580008B4201D34B00C01A5241411A5241100014
:100590007047CA0F00D04942031000D34042534075
:1005A00000229C4603098B422DD3030A8B4212D3AF
:1005B0008901FC2212BA030A8B420CD389019211E1
:1005C0008B4208D3890192118B4204D3890137D021
:1005D000921100E08909C3098B4201D3CB01C01AF3
:1005E000524183098B4201D38B01C01A5241430906
:1005F0008B4201D34B01C01A524103098B4201D3F4
:100600000B01C01A5241C3088B4201D3CB00C01A60
:10061000524183088B4201D38B00C01A5241D9D278
:1006200043088B4201D34B00C01A5241411A00D2F9
:1006300001465241104663465B1000D3404270476A
:1006400063465B1000D3404201B50021004201D057
:10065000C9430846C046C04602BD000080060008E7
:1006600000000020080000000001000888060008C3
:1006700008000020600600001C01000800000000C7
:0806800000127A0000000000E6
:04000005080000BD32
:00000001FF
